:060000000A128A11FC2F18
:100F7600F001831603138801F030860083160317E9
:100F86008901DB2F3F30D82F0630D82F5B30D82F82
:100F96004F30D82F6630D82F6D30D82F7D30D82FD0
:100FA6004B30D82FFF30D82F6B30831203138800B5
:100FB6007008003A0319C52F013A0319C72F033ADF
:100FC6000319C92F013A0319CB2F073A0319CD2F5D
:100FD600013A0319CF2F033A0319D12F013A031906
:100FE600D32F0F3A0319D52F013A0319D72FDB2F29
:0A0FF600DB2F83010A128A11BB2FC2
:02400E00F5FFBC
:00000001FF
